{
  "contractName": "NameRegistry",
  "abi": [
    {
      "inputs": [
        {
          "internalType": "address",
          "name": "",
          "type": "address"
        }
      ],
      "name": "address_to_user_id",
      "outputs": [
        {
          "internalType": "uint256",
          "name": "",
          "type": "uint256"
        }
      ],
      "stateMutability": "view",
      "type": "function",
      "constant": true
    },
    {
      "inputs": [
        {
          "internalType": "uint256",
          "name": "",
          "type": "uint256"
        }
      ],
      "name": "id_to_person",
      "outputs": [
        {
          "internalType": "uint256",
          "name": "user_id",
          "type": "uint256"
        },
        {
          "internalType": "address",
          "name": "user_address",
          "type": "address"
        },
        {
          "internalType": "string",
          "name": "user_name",
          "type": "string"
        }
      ],
      "stateMutability": "view",
      "type": "function",
      "constant": true
    },
    {
      "inputs": [],
      "name": "user_counter",
      "outputs": [
        {
          "internalType": "uint256",
          "name": "",
          "type": "uint256"
        }
      ],
      "stateMutability": "view",
      "type": "function",
      "constant": true
    },
    {
      "inputs": [
        {
          "internalType": "uint256",
          "name": "",
          "type": "uint256"
        }
      ],
      "name": "user_ids",
      "outputs": [
        {
          "internalType": "uint256",
          "name": "",
          "type": "uint256"
        }
      ],
      "stateMutability": "view",
      "type": "function",
      "constant": true
    },
    {
      "inputs": [
        {
          "internalType": "string",
          "name": "_name",
          "type": "string"
        }
      ],
      "name": "addUser",
      "outputs": [],
      "stateMutability": "nonpayable",
      "type": "function"
    },
    {
      "inputs": [
        {
          "internalType": "uint256",
          "name": "_id",
          "type": "uint256"
        }
      ],
      "name": "getUserById",
      "outputs": [
        {
          "components": [
            {
              "internalType": "uint256",
              "name": "user_id",
              "type": "uint256"
            },
            {
              "internalType": "address",
              "name": "user_address",
              "type": "address"
            },
            {
              "internalType": "string",
              "name": "user_name",
              "type": "string"
            }
          ],
          "internalType": "struct NameRegistry.Person",
          "name": "person",
          "type": "tuple"
        }
      ],
      "stateMutability": "view",
      "type": "function",
      "constant": true
    },
    {
      "inputs": [
        {
          "internalType": "address",
          "name": "_user",
          "type": "address"
        }
      ],
      "name": "getUserByaddress",
      "outputs": [
        {
          "components": [
            {
              "internalType": "uint256",
              "name": "user_id",
              "type": "uint256"
            },
            {
              "internalType": "address",
              "name": "user_address",
              "type": "address"
            },
            {
              "internalType": "string",
              "name": "user_name",
              "type": "string"
            }
          ],
          "internalType": "struct NameRegistry.Person",
          "name": "person",
          "type": "tuple"
        }
      ],
      "stateMutability": "view",
      "type": "function",
      "constant": true
    },
    {
      "inputs": [],
      "name": "getMyDetails",
      "outputs": [
        {
          "components": [
            {
              "internalType": "uint256",
              "name": "user_id",
              "type": "uint256"
            },
            {
              "internalType": "address",
              "name": "user_address",
              "type": "address"
            },
            {
              "internalType": "string",
              "name": "user_name",
              "type": "string"
            }
          ],
          "internalType": "struct NameRegistry.Person",
          "name": "person",
          "type": "tuple"
        }
      ],
      "stateMutability": "view",
      "type": "function",
      "constant": true
    }
  ],
  "bytecode": "0x608060405234801561001057600080fd5b50610e34806100206000396000f3fe608060405234801561001057600080fd5b50600436106100885760003560e01c8063639102e91161005b578063639102e9146101275780636ed6da9e14610157578063b164f9d414610187578063cb706c94146101b957610088565b806312fdd2bd1461008d57806318b8275a146100bd57806325892088146100d9578063431bbb7e14610109575b600080fd5b6100a760048036038101906100a29190610979565b6101d7565b6040516100b49190610b0a565b60405180910390f35b6100d760048036038101906100d291906109a2565b610335565b005b6100f360048036038101906100ee91906109e3565b61047e565b6040516101009190610b2c565b60405180910390f35b6101116104a2565b60405161011e9190610b0a565b60405180910390f35b610141600480360381019061013c9190610979565b6105fe565b60405161014e9190610b2c565b60405180910390f35b610171600480360381019061016c91906109e3565b610616565b60405161017e9190610b0a565b60405180910390f35b6101a1600480360381019061019c91906109e3565b610735565b6040516101b093929190610b47565b60405180910390f35b6101c1610807565b6040516101ce9190610b2c565b60405180910390f35b6101df61080d565b60026000600360008573ffffffffffffffffffffffffffffffffffffffff1673ffffffffffffffffffffffffffffffffffffffff168152602001908152602001600020548152602001908152602001600020604051806060016040529081600082015481526020016001820160009054906101000a900473ffffffffffffffffffffffffffffffffffffffff1673ffffffffffffffffffffffffffffffffffffffff1673ffffffffffffffffffffffffffffffffffffffff1681526020016002820180546102ac90610c86565b80601f01602080910402602001604051908101604052809291908181526020018280546102d890610c86565b80156103255780601f106102fa57610100808354040283529160200191610325565b820191906000526020600020905b81548152906001019060200180831161030857829003601f168201915b5050505050815250509050919050565b60008081548092919061034790610ce9565b91905055506000604051806060016040528060005481526020013373ffffffffffffffffffffffffffffffffffffffff168152602001838152509050600160005490806001815401808255809150506001900390600052602060002001600090919091909150558060026000805481526020019081526020016000206000820151816000015560208201518160010160006101000a81548173ffffffffffffffffffffffffffffffffffffffff021916908373ffffffffffffffffffffffffffffffffffffffff1602179055506040820151816002019080519060200190610430929190610844565b50905050600054600360003373ffffffffffffffffffffffffffffffffffffffff1673ffffffffffffffffffffffffffffffffffffffff168152602001908152602001600020819055505050565b6001818154811061048e57600080fd5b906000526020600020016000915090505481565b6104aa61080d565b60026000600360003373ffffffffffffffffffffffffffffffffffffffff1673ffffffffffffffffffffffffffffffffffffffff168152602001908152602001600020548152602001908152602001600020604051806060016040529081600082015481526020016001820160009054906101000a900473ffffffffffffffffffffffffffffffffffffffff1673ffffffffffffffffffffffffffffffffffffffff1673ffffffffffffffffffffffffffffffffffffffff16815260200160028201805461057790610c86565b80601f01602080910402602001604051908101604052809291908181526020018280546105a390610c86565b80156105f05780601f106105c5576101008083540402835291602001916105f0565b820191906000526020600020905b8154815290600101906020018083116105d357829003601f168201915b505050505081525050905090565b60036020528060005260406000206000915090505481565b61061e61080d565b60026000838152602001908152602001600020604051806060016040529081600082015481526020016001820160009054906101000a900473ffffffffffffffffffffffffffffffffffffffff1673ffffffffffffffffffffffffffffffffffffffff1673ffffffffffffffffffffffffffffffffffffffff1681526020016002820180546106ac90610c86565b80601f01602080910402602001604051908101604052809291908181526020018280546106d890610c86565b80156107255780601f106106fa57610100808354040283529160200191610725565b820191906000526020600020905b81548152906001019060200180831161070857829003601f168201915b5050505050815250509050919050565b60026020528060005260406000206000915090508060000154908060010160009054906101000a900473ffffffffffffffffffffffffffffffffffffffff169080600201805461078490610c86565b80601f01602080910402602001604051908101604052809291908181526020018280546107b090610c86565b80156107fd5780601f106107d2576101008083540402835291602001916107fd565b820191906000526020600020905b8154815290600101906020018083116107e057829003601f168201915b5050505050905083565b60005481565b604051806060016040528060008152602001600073ffffffffffffffffffffffffffffffffffffffff168152602001606081525090565b82805461085090610c86565b90600052602060002090601f01602090048101928261087257600085556108b9565b82601f1061088b57805160ff19168380011785556108b9565b828001600101855582156108b9579182015b828111156108b857825182559160200191906001019061089d565b5b5090506108c691906108ca565b5090565b5b808211156108e35760008160009055506001016108cb565b5090565b60006108fa6108f584610baa565b610b85565b90508281526020810184848401111561091257600080fd5b61091d848285610c44565b509392505050565b60008135905061093481610dd0565b92915050565b600082601f83011261094b57600080fd5b813561095b8482602086016108e7565b91505092915050565b60008135905061097381610de7565b92915050565b60006020828403121561098b57600080fd5b600061099984828501610925565b91505092915050565b6000602082840312156109b457600080fd5b600082013567ffffffffffffffff8111156109ce57600080fd5b6109da8482850161093a565b91505092915050565b6000602082840312156109f557600080fd5b6000610a0384828501610964565b91505092915050565b610a1581610c08565b82525050565b610a2481610c08565b82525050565b6000610a3582610bdb565b610a3f8185610be6565b9350610a4f818560208601610c53565b610a5881610dbf565b840191505092915050565b6000610a6e82610bdb565b610a788185610bf7565b9350610a88818560208601610c53565b610a9181610dbf565b840191505092915050565b6000606083016000830151610ab46000860182610aec565b506020830151610ac76020860182610a0c565b5060408301518482036040860152610adf8282610a2a565b9150508091505092915050565b610af581610c3a565b82525050565b610b0481610c3a565b82525050565b60006020820190508181036000830152610b248184610a9c565b905092915050565b6000602082019050610b416000830184610afb565b92915050565b6000606082019050610b5c6000830186610afb565b610b696020830185610a1b565b8181036040830152610b7b8184610a63565b9050949350505050565b6000610b8f610ba0565b9050610b9b8282610cb8565b919050565b6000604051905090565b600067ffffffffffffffff821115610bc557610bc4610d90565b5b610bce82610dbf565b9050602081019050919050565b600081519050919050565b600082825260208201905092915050565b600082825260208201905092915050565b6000610c1382610c1a565b9050919050565b600073ffffffffffffffffffffffffffffffffffffffff82169050919050565b6000819050919050565b82818337600083830152505050565b60005b83811015610c71578082015181840152602081019050610c56565b83811115610c80576000848401525b50505050565b60006002820490506001821680610c9e57607f821691505b60208210811415610cb257610cb1610d61565b5b50919050565b610cc182610dbf565b810181811067ffffffffffffffff82111715610ce057610cdf610d90565b5b80604052505050565b6000610cf482610c3a565b91507fffffffffffffffffffffffffffffffffffffffffffffffffffffffffffffffff821415610d2757610d26610d32565b5b600182019050919050565b7f4e487b7100000000000000000000000000000000000000000000000000000000600052601160045260246000fd5b7f4e487b7100000000000000000000000000000000000000000000000000000000600052602260045260246000fd5b7f4e487b7100000000000000000000000000000000000000000000000000000000600052604160045260246000fd5b6000601f19601f8301169050919050565b610dd981610c08565b8114610de457600080fd5b50565b610df081610c3a565b8114610dfb57600080fd5b5056fea2646970667358221220539c420f1cd3a83c0c3e3f047d1b0b3919f79357d5e5ffbd5c0b220c4ba025fe64736f6c63430008010033",
  "immutableReferences": {},
  "source": "pragma solidity ^0.8.0;\r\n\r\ncontract NameRegistry {\r\n    \r\n    // state variables\r\n    struct Person{\r\n        uint user_id;\r\n        address user_address;\r\n        string user_name;\r\n    }\r\n    uint public user_counter;\r\n    uint[] public user_ids;\r\n    mapping(uint=>Person) public id_to_person;\r\n    mapping(address=>uint) public address_to_user_id;\r\n    \r\n    // Function declarations\r\n    \r\n    function addUser(string memory _name) public {\r\n        user_counter++;\r\n        Person memory new_person = Person(user_counter, msg.sender, _name);\r\n        user_ids.push(user_counter);\r\n        id_to_person[user_counter] = new_person;\r\n        address_to_user_id[msg.sender] = user_counter;\r\n    }\r\n    \r\n    function getUserById(uint _id) public view returns(Person memory person) {\r\n        return id_to_person[_id];\r\n    }\r\n    \r\n    function getUserByaddress(address _user) public view returns(Person memory person) {\r\n        return id_to_person[address_to_user_id[_user]];\r\n    }\r\n    \r\n    function getMyDetails() public view returns(Person memory person) {\r\n        return id_to_person[address_to_user_id[msg.sender]];\r\n    }\r\n    \r\n}",
  "sourcePath": "E:/Projects/BlockchainBootcamp/Dwitter/contracts/NameRegistry.sol",
  "compiler": {
    "name": "solc",
    "version": "0.8.1+commit.df193b15.Emscripten.clang"
  },
  "schemaVersion": "3.3.4",
  "updatedAt": "2021-03-02T06:57:02.244Z",
  "networkType": "ethereum",
  "devdoc": {
    "kind": "dev",
    "methods": {},
    "version": 1
  },
  "userdoc": {
    "kind": "user",
    "methods": {},
    "version": 1
  }
}